{
  "contractName": "Transfer",
  "abi": [
    {
      "stateMutability": "payable",
      "type": "receive",
      "payable": true
    },
    {
      "inputs": [
        {
          "internalType": "address payable",
          "name": "account1",
          "type": "address"
        },
        {
          "internalType": "address payable",
          "name": "account2",
          "type": "address"
        },
        {
          "internalType": "uint256",
          "name": "amount",
          "type": "uint256"
        }
      ],
      "name": "transfer",
      "outputs": [],
      "stateMutability": "nonpayable",
      "type": "function"
    }
  ],
  "bytecode": "0x608060405234801561001057600080fd5b5061035a806100206000396000f3fe6080604052600436106100225760003560e01c8063beabacc81461002e57610029565b3661002957005b600080fd5b34801561003a57600080fd5b5061005560048036038101906100509190610171565b610057565b005b6002816100649190610231565b4710156100a6576040517f08c379a000000000000000000000000000000000000000000000000000000000815260040161009d90610200565b60405180910390fd5b8273ffffffffffffffffffffffffffffffffffffffff166108fc60009081150290604051600060405180830381858888f193505050501580156100ed573d6000803e3d6000fd5b508173ffffffffffffffffffffffffffffffffffffffff166108fc6103e8836101169190610231565b9081150290604051600060405180830381858888f19350505050158015610141573d6000803e3d6000fd5b50505050565b600081359050610156816102f6565b92915050565b60008135905061016b8161030d565b92915050565b60008060006060848603121561018657600080fd5b600061019486828701610147565b93505060206101a586828701610147565b92505060406101b68682870161015c565b9150509250925092565b60006101cd601e83610220565b91507f496e73756666696369656e742066756e647320696e20636f6e747261637400006000830152602082019050919050565b60006020820190508181036000830152610219816101c0565b9050919050565b600082825260208201905092915050565b600061023c826102bd565b9150610247836102bd565b9250817fffffffffffffffffffffffffffffffffffffffffffffffffffffffffffffffff04831182151516156102805761027f6102c7565b5b828202905092915050565b60006102968261029d565b9050919050565b600073ffffffffffffffffffffffffffffffffffffffff82169050919050565b6000819050919050565b7f4e487b7100000000000000000000000000000000000000000000000000000000600052601160045260246000fd5b6102ff8161028b565b811461030a57600080fd5b50565b610316816102bd565b811461032157600080fd5b5056fea26469706673582212202531d20c3abc7431e4bb5c6cce107707c16798d4aa2e34a13e09f438e489494464736f6c63430008000033",
  "immutableReferences": {},
  "source": "pragma solidity ^0.8.0;\n\ncontract Transfer {\n    receive() external payable {}\n    \n    function transfer(address payable account1, address payable account2, uint256 amount) public {\n        require(address(this).balance >= amount * 2, \"Insufficient funds in contract\");\n        account1.transfer(0);\n        account2.transfer(amount*1000);\n    }\n}\n\n",
  "sourcePath": "/home/farahpoor/mycoin/contracts/Transfer.sol",
  "compiler": {
    "name": "solc",
    "version": "0.8.0+commit.c7dfd78e.Emscripten.clang"
  },
  "schemaVersion": "3.4.13",
  "updatedAt": "2023-05-04T15:36:18.052Z",
  "networkType": "ethereum",
  "devdoc": {
    "kind": "dev",
    "methods": {},
    "version": 1
  },
  "userdoc": {
    "kind": "user",
    "methods": {},
    "version": 1
  }
}